:030000000209A54D
:0C09A500787FE4F6D8FD7581590209EC5A
:100BE500007F00BF00DF00EF00EE00ED00EB00E747
:100BF50000DE00DD00DB00D700BE00BD00BB00B796
:080C0500007E007D007B0077FA
:100ABC00024E01F402560064025203E8020C006478
:100ACC00024C138802542710025003E8020A03E870
:100ADC0002580000024A0000020800070248000009
:100AEC00020E0000021000000212000002140000AE
:100AFC00021600002030180001000200040008005B
:100B0C001000200040008000030006000C001800BC
:100B1C0030006000C000810007000E001C0038008F
:070B2C007000E000C100832E
:0B0C3700EF1FAC0670011E4C70F6228F
:10080000E4FDED25E024E5F582E4340BF583E49383
:10081000FE740193FFF5A0ACA0ECFBEF6B7001EE52
:1008200070030208D97FC87E00120C37ED25E02442
:10083000E5F582E4340BF583AFA07401936F700289
:10084000E49370030208D9ED25E024E5F582E43451
:100850000BF583AFA07401936F7002E493607AAFDD
:10086000A0900BED740193B5070DE493B4000875E7
:100870000E00750F0180D0AFA0900BEF740193B5FF
:10088000070DE493B4000875100075110180B8AF2E
:10089000A0900BF1740193B5070DE493B4000875B3
:1008A000120075130180A0AFA0900BF3740193B5F3
:1008B000070DE493B400087514007515018088AF26
:1008C000A0900BF57401936F7002E493600302082B
:1008D00047F5167517010208470DED640460030221
:1008E0000802E50F6401450E7021F50EF50FD3E502
:1008F0004D9551E5506480F8E54C648098400CE5D6
:100900004D950BF54DE54C950AF54CE51164014507
:10091000107021F510F511C3E54D9555E55464802F
:10092000F8E54C648098500CE50B254DF54DE50A33
:10093000354CF54CE513640145127021F512F513A1
:10094000D3E54F9557E5566480F8E54E64809840AE
:100950000CE54F950DF54FE54E950CF54EE51564FC
:100960000145147021F514F515C3E54F9553E55273
:100970006480F8E54E648098500CE50D254FF54FE6
:10098000E50C354EF54EE517640145167016F51663
:10099000F517054BE54B7002054A6403454A7004A0
:0409A000F54AF54BD4
:0109A4002230
:100C2700758901758CF8758A30D2AFD2A9D28C221A
:03000B00020B34B1
:100B3400C0E0C0F0C083C082C0D075D000C000C087
:100B440001C002C003C004C005C006C007758CF80C
:100B5400758A300549E54970020548AC4EAD4FAE83
:100B640048FF120A31ED4C7003120BA0AC4CAD4D92
:100B7400AE48AF49120A31ED4C70066359FF635811
:100B8400FFD007D006D005D004D003D002D001D0C6
:0C0B940000D0D0D082D083D0F0D0E0326E
:100C0D00120C27E54BC454F02418F8E50925E0280B
:0A0C1D00F808E6F58012080080FBDD
:100BA000E559455860140509E5097002050864080F
:100BB0004508701EF508F5098018E5091509700249
:100BC0001508E509B4FF0BE508B4FF0675080075C4
:100BD0000907E54BC454F02418F8E50925E028F886
:050BE00008E6F580228B
:1009B100020C0DE493A3F8E493A34003F68001F243
:1009C10008DFF48029E493A3F85407240CC8C33347
:1009D100C4540F4420C8834004F456800146F6DF16
:1009E100E4800B0102040810204080900ABCE47EE0
:1009F100019360BCA3FF543F30E509541FFEE4930B
:100A0100A360010ECF54C025E060A840B8E493A3D1
:100A1100FAE493A3F8E493A3C8C582C8CAC583CAFC
:100A2100F0A3C8C582C8CAC583CADFE9DEE780BEB4
:010B330000C1
:100A3100C2D5EC30E709B2D5E4C39DFDE49CFCEEE0
:100A410030E715B2D5E4C39FFFE49EFE120A67C3E7
:100A5100E49DFDE49CFC8003120A6730D507C3E4E2
:060A61009FFFE49EFE224F
:100A6700BC000BBE0029EF8DF084FFADF022E4CC73
:100A7700F875F008EF2FFFEE33FEEC33FCEE9DEC3C
:100A8700984005FCEE9DFE0FD5F0E9E4CEFD22ED82
:100A9700F8F5F0EE8420D21CFEADF075F008EF2FCC
:100AA700FFED33FD4007985006D5F0F222C398FDBD
:050AB7000FD5F0EA225A
:00000001FF
